{
  "transactions": [
    {
      "hash": "0x797e85bb82e9defba1b35d8dd9a4c73a59cf318fbe4d25c3444c1a3085b7bdf9",
      "transactionType": "CREATE",
      "contractName": "CounterUpgradeableV2",
      "contractAddress": "0x880453d634e78c77b1fc49b07e7d1c2c96a59b22",
      "function": null,
      "arguments": null,
      "transaction": {
        "from": "0x2b754def498d4b6adada538f01727ddf67d91a7d",
        "gas": "0x36ca9",
        "value": "0x0",
        "input": "0x6080604052348015600e575f80fd5b506102288061001c5f395ff3fe608060405234801561000f575f80fd5b5060043610610055575f3560e01c806306661abd146100595780638129fc1c14610074578063890eba681461007e578063d09de08a1461009b578063d79e0a52146100a3575b5f80fd5b6100615f5481565b6040519081526020015b60405180910390f35b61007c6100ae565b005b60015461008b9060ff1681565b604051901515815260200161006b565b61007c6101b5565b60015460ff1661008b565b7ff0c57e16840df040f15088dc2f81fe391c3923bec73e23a9662efc9c229c6a008054600160401b810460ff16159067ffffffffffffffff165f811580156100f35750825b90505f8267ffffffffffffffff16600114801561010f5750303b155b90508115801561011d575080155b1561013b5760405163f92ee8a960e01b815260040160405180910390fd5b845467ffffffffffffffff19166001178555831561016557845460ff60401b1916600160401b1785555b5f805583156101ae57845460ff60401b19168555604051600181527fc7f505b2f371ae2175ee4913f4499e1f2633a7b5936321eed1cdaeb6115181d29060200160405180910390a15b5050505050565b60015f808282546101c691906101cd565b9091555050565b808201808211156101ec57634e487b7160e01b5f52601160045260245ffd5b9291505056fea2646970667358221220cf92358bf77430e6de6568eb0f121793d652762dccfec595de2368e30a3585c664736f6c63430008190033",
        "nonce": "0x8b",
        "chainId": "0xaa36a7"
      },
      "additionalContracts": [],
      "isFixedGasLimit": false
    },
    {
      "hash": "0x3dc347b5b4f2b754a66742449db9e4f5326f51b4585bdbf087da66ddd3528791",
      "transactionType": "CALL",
      "contractName": null,
      "contractAddress": "0x5e49541be4d03f40c840cdf3c10ec7f0bd603644",
      "function": "UPGRADE_INTERFACE_VERSION()",
      "arguments": [],
      "transaction": {
        "from": "0x2b754def498d4b6adada538f01727ddf67d91a7d",
        "to": "0x5e49541be4d03f40c840cdf3c10ec7f0bd603644",
        "gas": "0x743b",
        "value": "0x0",
        "input": "0xad3cb1cc",
        "nonce": "0x8c",
        "chainId": "0xaa36a7"
      },
      "additionalContracts": [],
      "isFixedGasLimit": false
    },
    {
      "hash": "0x87a8cae6de9fb47a904126ab214828477ecd39bc9bc7e0fbb6f334d29a92c723",
      "transactionType": "CALL",
      "contractName": null,
      "contractAddress": "0x5e49541be4d03f40c840cdf3c10ec7f0bd603644",
      "function": "upgradeAndCall(address,address,bytes)",
      "arguments": [
        "0x51DE36eeA69e0bB922110532B806a27Af3580fff",
        "0x880453D634E78C77b1fc49B07E7d1C2c96A59B22",
        "0x"
      ],
      "transaction": {
        "from": "0x2b754def498d4b6adada538f01727ddf67d91a7d",
        "to": "0x5e49541be4d03f40c840cdf3c10ec7f0bd603644",
        "gas": "0xcc27",
        "value": "0x0",
        "input": "0x9623609d00000000000000000000000051de36eea69e0bb922110532b806a27af3580fff000000000000000000000000880453d634e78c77b1fc49b07e7d1c2c96a59b2200000000000000000000000000000000000000000000000000000000000000600000000000000000000000000000000000000000000000000000000000000000",
        "nonce": "0x8d",
        "chainId": "0xaa36a7"
      },
      "additionalContracts": [],
      "isFixedGasLimit": false
    }
  ],
  "receipts": [
    {
      "status": "0x1",
      "cumulativeGasUsed": "0x8c8ebf",
      "logs": [],
      "logsBloom": "0x00000000000000000000000000000000000000000000000000000000000000000000000000000000000000000000000000000000000000000000000000000000000000000000000000000000000000000000000000000000000000000000000000000000000000000000000000000000000000000000000000000000000000000000000000000000000000000000000000000000000000000000000000000000000000000000000000000000000000000000000000000000000000000000000000000000000000000000000000000000000000000000000000000000000000000000000000000000000000000000000000000000000000000000000000000000",
      "type": "0x2",
      "transactionHash": "0x797e85bb82e9defba1b35d8dd9a4c73a59cf318fbe4d25c3444c1a3085b7bdf9",
      "transactionIndex": "0x53",
      "blockHash": "0x71ca5e3579640072ce4fc71a479d3fd52f1c08871898aa5ca7dc28cf4b273c63",
      "blockNumber": "0x61b14b",
      "gasUsed": "0x2a25b",
      "effectiveGasPrice": "0xc9d65ae4",
      "from": "0x2b754def498d4b6adada538f01727ddf67d91a7d",
      "to": null,
      "contractAddress": "0x880453d634e78c77b1fc49b07e7d1c2c96a59b22"
    },
    {
      "status": "0x1",
      "cumulativeGasUsed": "0x8f6155",
      "logs": [],
      "logsBloom": "0x00000000000000000000000000000000000000000000000000000000000000000000000000000000000000000000000000000000000000000000000000000000000000000000000000000000000000000000000000000000000000000000000000000000000000000000000000000000000000000000000000000000000000000000000000000000000000000000000000000000000000000000000000000000000000000000000000000000000000000000000000000000000000000000000000000000000000000000000000000000000000000000000000000000000000000000000000000000000000000000000000000000000000000000000000000000",
      "type": "0x2",
      "transactionHash": "0x3dc347b5b4f2b754a66742449db9e4f5326f51b4585bdbf087da66ddd3528791",
      "transactionIndex": "0x55",
      "blockHash": "0x71ca5e3579640072ce4fc71a479d3fd52f1c08871898aa5ca7dc28cf4b273c63",
      "blockNumber": "0x61b14b",
      "gasUsed": "0x5427",
      "effectiveGasPrice": "0xc9d65ae4",
      "from": "0x2b754def498d4b6adada538f01727ddf67d91a7d",
      "to": "0x5e49541be4d03f40c840cdf3c10ec7f0bd603644",
      "contractAddress": null
    },
    {
      "status": "0x1",
      "cumulativeGasUsed": "0x8ff524",
      "logs": [
        {
          "address": "0x51de36eea69e0bb922110532b806a27af3580fff",
          "topics": [
            "0xbc7cd75a20ee27fd9adebab32041f755214dbc6bffa90cc0225b39da2e5c2d3b",
            "0x000000000000000000000000880453d634e78c77b1fc49b07e7d1c2c96a59b22"
          ],
          "data": "0x",
          "blockHash": "0x71ca5e3579640072ce4fc71a479d3fd52f1c08871898aa5ca7dc28cf4b273c63",
          "blockNumber": "0x61b14b",
          "transactionHash": "0x87a8cae6de9fb47a904126ab214828477ecd39bc9bc7e0fbb6f334d29a92c723",
          "transactionIndex": "0x56",
          "logIndex": "0xab",
          "removed": false
        }
      ],
      "logsBloom": "0x00000000000000000000200000000000400000008040000000000000000000000000000000000000000000000000000008000000000000000000000000000000000000000000000000000000000002000000000000000000000000000000000000000000000000000000000000000000000000000000000000000000000000000000000000000000000000000000000000000000000000000000000000000000000000000000000000000000000000000000000000000000000000000000000000000020000000000000000000000200000000000000000000000000000000000000000000000000000000000000000000000000000000000000000000100000",
      "type": "0x2",
      "transactionHash": "0x87a8cae6de9fb47a904126ab214828477ecd39bc9bc7e0fbb6f334d29a92c723",
      "transactionIndex": "0x56",
      "blockHash": "0x71ca5e3579640072ce4fc71a479d3fd52f1c08871898aa5ca7dc28cf4b273c63",
      "blockNumber": "0x61b14b",
      "gasUsed": "0x93cf",
      "effectiveGasPrice": "0xc9d65ae4",
      "from": "0x2b754def498d4b6adada538f01727ddf67d91a7d",
      "to": "0x5e49541be4d03f40c840cdf3c10ec7f0bd603644",
      "contractAddress": null
    }
  ],
  "libraries": [],
  "pending": [],
  "returns": {},
  "timestamp": 1722325237,
  "chain": 11155111,
  "commit": "9e1fc1d"
}