{
  "transactions": [
    {
      "hash": "0xcabf6d6c0e576c92ac5f5371eb35988e3bf6c91e07f234be0d8a8f2759121814",
      "transactionType": "CREATE",
      "contractName": "AdderUpgradeableV2",
      "contractAddress": "0x03fa46d822d8717e482cbd80f89d1280718b178a",
      "function": null,
      "arguments": null,
      "transaction": {
        "from": "0x2b754def498d4b6adada538f01727ddf67d91a7d",
        "gas": "0xc7c76",
        "value": "0x0",
        "input": "0x60a0604052306080523480156012575f80fd5b50608051610a6c6100395f395f81816103c7015281816103f001526105340152610a6c5ff3fe60806040526004361061008f575f3560e01c8063715018a611610057578063715018a6146101175780638129fc1c1461012b5780638da5cb5b1461013f578063ad3cb1cc14610185578063f2fde38b146101c2575f80fd5b80631003e2d2146100935780632ddbd13a146100b45780634f1ef286146100db57806352d1902d146100ee5780636ec3935414610102575b5f80fd5b34801561009e575f80fd5b506100b26100ad36600461087a565b6101e1565b005b3480156100bf575f80fd5b506100c85f5481565b6040519081526020015b60405180910390f35b6100b26100e93660046108c0565b610211565b3480156100f9575f80fd5b506100c8610230565b34801561010d575f80fd5b506100c860015481565b348015610122575f80fd5b506100b261024b565b348015610136575f80fd5b506100b261025e565b34801561014a575f80fd5b507f9016d09d72d40fdae2fd8ceac6b6234c7706214fd39c1cd1e609a0528c199300546040516001600160a01b0390911681526020016100d2565b348015610190575f80fd5b506101b5604051806040016040528060058152602001640352e302e360dc1b81525081565b6040516100d2919061097c565b3480156101cd575f80fd5b506100b26101dc3660046109b1565b61037a565b805f808282546101f191906109ca565b925050819055506001805f82825461020991906109ca565b909155505050565b6102196103bc565b61022282610460565b61022c8282610468565b5050565b5f610239610529565b505f80516020610a1783398151915290565b610253610572565b61025c5f6105cd565b565b7ff0c57e16840df040f15088dc2f81fe391c3923bec73e23a9662efc9c229c6a008054600160401b810460ff16159067ffffffffffffffff165f811580156102a35750825b90505f8267ffffffffffffffff1660011480156102bf5750303b155b9050811580156102cd575080155b156102eb5760405163f92ee8a960e01b815260040160405180910390fd5b845467ffffffffffffffff19166001178555831561031557845460ff60401b1916600160401b1785555b61031e3361063d565b61032661064e565b5f808055600155831561037357845460ff60401b19168555604051600181527fc7f505b2f371ae2175ee4913f4499e1f2633a7b5936321eed1cdaeb6115181d29060200160405180910390a15b5050505050565b610382610572565b6001600160a01b0381166103b057604051631e4fbdf760e01b81525f60048201526024015b60405180910390fd5b6103b9816105cd565b50565b306001600160a01b037f000000000000000000000000000000000000000000000000000000000000000016148061044257507f00000000000000000000000000000000000000000000000000000000000000006001600160a01b03166104365f80516020610a17833981519152546001600160a01b031690565b6001600160a01b031614155b1561025c5760405163703e46dd60e11b815260040160405180910390fd5b6103b9610572565b816001600160a01b03166352d1902d6040518163ffffffff1660e01b8152600401602060405180830381865afa9250505080156104c2575060408051601f3d908101601f191682019092526104bf918101906109e9565b60015b6104ea57604051634c9c8ce360e01b81526001600160a01b03831660048201526024016103a7565b5f80516020610a17833981519152811461051a57604051632a87526960e21b8152600481018290526024016103a7565b6105248383610656565b505050565b306001600160a01b037f0000000000000000000000000000000000000000000000000000000000000000161461025c5760405163703e46dd60e11b815260040160405180910390fd5b336105a47f9016d09d72d40fdae2fd8ceac6b6234c7706214fd39c1cd1e609a0528c199300546001600160a01b031690565b6001600160a01b03161461025c5760405163118cdaa760e01b81523360048201526024016103a7565b7f9016d09d72d40fdae2fd8ceac6b6234c7706214fd39c1cd1e609a0528c19930080546001600160a01b031981166001600160a01b03848116918217845560405192169182907f8be0079c531659141344cd1fd0a4f28419497f9722a3daafe3b4186f6b6457e0905f90a3505050565b6106456106ab565b6103b9816106f4565b61025c6106ab565b61065f826106fc565b6040516001600160a01b038316907fbc7cd75a20ee27fd9adebab32041f755214dbc6bffa90cc0225b39da2e5c2d3b905f90a28051156106a357610524828261075f565b61022c6107d3565b7ff0c57e16840df040f15088dc2f81fe391c3923bec73e23a9662efc9c229c6a0054600160401b900460ff1661025c57604051631afcd79f60e31b815260040160405180910390fd5b6103826106ab565b806001600160a01b03163b5f0361073157604051634c9c8ce360e01b81526001600160a01b03821660048201526024016103a7565b5f80516020610a1783398151915280546001600160a01b0319166001600160a01b0392909216919091179055565b60605f80846001600160a01b03168460405161077b9190610a00565b5f60405180830381855af49150503d805f81146107b3576040519150601f19603f3d011682016040523d82523d5f602084013e6107b8565b606091505b50915091506107c88583836107f2565b925050505b92915050565b341561025c5760405163b398979f60e01b815260040160405180910390fd5b6060826108075761080282610851565b61084a565b815115801561081e57506001600160a01b0384163b155b1561084757604051639996b31560e01b81526001600160a01b03851660048201526024016103a7565b50805b9392505050565b8051156108615780518082602001fd5b60405163d6bda27560e01b815260040160405180910390fd5b5f6020828403121561088a575f80fd5b5035919050565b80356001600160a01b03811681146108a7575f80fd5b919050565b634e487b7160e01b5f52604160045260245ffd5b5f80604083850312156108d1575f80fd5b6108da83610891565b9150602083013567ffffffffffffffff808211156108f6575f80fd5b818501915085601f830112610909575f80fd5b81358181111561091b5761091b6108ac565b604051601f8201601f19908116603f01168101908382118183101715610943576109436108ac565b8160405282815288602084870101111561095b575f80fd5b826020860160208301375f6020848301015280955050505050509250929050565b602081525f82518060208401528060208501604085015e5f604082850101526040601f19601f83011684010191505092915050565b5f602082840312156109c1575f80fd5b61084a82610891565b808201808211156107cd57634e487b7160e01b5f52601160045260245ffd5b5f602082840312156109f9575f80fd5b5051919050565b5f82518060208501845e5f92019182525091905056fe360894a13ba1a3210667c828492db98dca3e2076cc3735a920a3ca505d382bbca2646970667358221220d696b95089d12486bfa3890b2f008e6549503c958437756fb63cf3bf0c21b0bb64736f6c63430008190033",
        "nonce": "0x86",
        "chainId": "0xaa36a7"
      },
      "additionalContracts": [],
      "isFixedGasLimit": false
    },
    {
      "hash": "0x3af50a23218578dcd9901eb744ebd7a47fcb3ae5d7135cdcba54fe3f8670f69c",
      "transactionType": "CALL",
      "contractName": null,
      "contractAddress": "0x2dff77b53c96c63eb46cce583875b04523a4cef5",
      "function": "UPGRADE_INTERFACE_VERSION()",
      "arguments": [],
      "transaction": {
        "from": "0x2b754def498d4b6adada538f01727ddf67d91a7d",
        "to": "0x2dff77b53c96c63eb46cce583875b04523a4cef5",
        "gas": "0x96e1",
        "value": "0x0",
        "input": "0xad3cb1cc",
        "nonce": "0x87",
        "chainId": "0xaa36a7"
      },
      "additionalContracts": [],
      "isFixedGasLimit": false
    },
    {
      "hash": "0x624c504a58589a96285015a5062b3d053d140acb63cf3cad1c9029eb551b4906",
      "transactionType": "CALL",
      "contractName": null,
      "contractAddress": "0x2dff77b53c96c63eb46cce583875b04523a4cef5",
      "function": "upgradeToAndCall(address,bytes)",
      "arguments": [
        "0x03fA46d822d8717E482CBD80f89D1280718b178a",
        "0x"
      ],
      "transaction": {
        "from": "0x2b754def498d4b6adada538f01727ddf67d91a7d",
        "to": "0x2dff77b53c96c63eb46cce583875b04523a4cef5",
        "gas": "0xcb06",
        "value": "0x0",
        "input": "0x4f1ef28600000000000000000000000003fa46d822d8717e482cbd80f89d1280718b178a00000000000000000000000000000000000000000000000000000000000000400000000000000000000000000000000000000000000000000000000000000000",
        "nonce": "0x88",
        "chainId": "0xaa36a7"
      },
      "additionalContracts": [],
      "isFixedGasLimit": false
    }
  ],
  "receipts": [
    {
      "status": "0x1",
      "cumulativeGasUsed": "0x10d651a",
      "logs": [],
      "logsBloom": "0x00000000000000000000000000000000000000000000000000000000000000000000000000000000000000000000000000000000000000000000000000000000000000000000000000000000000000000000000000000000000000000000000000000000000000000000000000000000000000000000000000000000000000000000000000000000000000000000000000000000000000000000000000000000000000000000000000000000000000000000000000000000000000000000000000000000000000000000000000000000000000000000000000000000000000000000000000000000000000000000000000000000000000000000000000000000",
      "type": "0x2",
      "transactionHash": "0xcabf6d6c0e576c92ac5f5371eb35988e3bf6c91e07f234be0d8a8f2759121814",
      "transactionIndex": "0x73",
      "blockHash": "0xb200e39c754b73c03ebe12638893169225b1cc64995ec4802e1ddda7ff055151",
      "blockNumber": "0x61ad28",
      "gasUsed": "0x99ad1",
      "effectiveGasPrice": "0xba6d05c3",
      "from": "0x2b754def498d4b6adada538f01727ddf67d91a7d",
      "to": null,
      "contractAddress": "0x03fa46d822d8717e482cbd80f89d1280718b178a"
    },
    {
      "status": "0x1",
      "cumulativeGasUsed": "0x10dcc45",
      "logs": [],
      "logsBloom": "0x00000000000000000000000000000000000000000000000000000000000000000000000000000000000000000000000000000000000000000000000000000000000000000000000000000000000000000000000000000000000000000000000000000000000000000000000000000000000000000000000000000000000000000000000000000000000000000000000000000000000000000000000000000000000000000000000000000000000000000000000000000000000000000000000000000000000000000000000000000000000000000000000000000000000000000000000000000000000000000000000000000000000000000000000000000000",
      "type": "0x2",
      "transactionHash": "0x3af50a23218578dcd9901eb744ebd7a47fcb3ae5d7135cdcba54fe3f8670f69c",
      "transactionIndex": "0x74",
      "blockHash": "0xb200e39c754b73c03ebe12638893169225b1cc64995ec4802e1ddda7ff055151",
      "blockNumber": "0x61ad28",
      "gasUsed": "0x672b",
      "effectiveGasPrice": "0xba6d05c3",
      "from": "0x2b754def498d4b6adada538f01727ddf67d91a7d",
      "to": "0x2dff77b53c96c63eb46cce583875b04523a4cef5",
      "contractAddress": null
    },
    {
      "status": "0x1",
      "cumulativeGasUsed": "0x10e5f42",
      "logs": [
        {
          "address": "0x2dff77b53c96c63eb46cce583875b04523a4cef5",
          "topics": [
            "0xbc7cd75a20ee27fd9adebab32041f755214dbc6bffa90cc0225b39da2e5c2d3b",
            "0x00000000000000000000000003fa46d822d8717e482cbd80f89d1280718b178a"
          ],
          "data": "0x",
          "blockHash": "0xb200e39c754b73c03ebe12638893169225b1cc64995ec4802e1ddda7ff055151",
          "blockNumber": "0x61ad28",
          "transactionHash": "0x624c504a58589a96285015a5062b3d053d140acb63cf3cad1c9029eb551b4906",
          "transactionIndex": "0x75",
          "logIndex": "0xc4",
          "removed": false
        }
      ],
      "logsBloom": "0x00000000000000000000000000000000400000000000000000000000000001000000000000000000000000000000000000000000000000000000000000000000000000000000000000000000000002000000000000000000000000000000000000010000800000000040000000000000000000000000004000000000000000000000000000000000000000000000000000000000000000000000000000000000000000000000000000000000000000040000000000000000000000000000000000000020000000000000000000000000000000000000000000000000000000000000000000000000000000000000000000000000000000000000000000000000",
      "type": "0x2",
      "transactionHash": "0x624c504a58589a96285015a5062b3d053d140acb63cf3cad1c9029eb551b4906",
      "transactionIndex": "0x75",
      "blockHash": "0xb200e39c754b73c03ebe12638893169225b1cc64995ec4802e1ddda7ff055151",
      "blockNumber": "0x61ad28",
      "gasUsed": "0x92fd",
      "effectiveGasPrice": "0xba6d05c3",
      "from": "0x2b754def498d4b6adada538f01727ddf67d91a7d",
      "to": "0x2dff77b53c96c63eb46cce583875b04523a4cef5",
      "contractAddress": null
    }
  ],
  "libraries": [],
  "pending": [],
  "returns": {},
  "timestamp": 1722310227,
  "chain": 11155111,
  "commit": "d7217ab"
}